{
    "contractName": "Certificate2",
    "abi": [
        {
            "inputs": [],
            "payable": false,
            "stateMutability": "nonpayable",
            "type": "constructor"
        },
        {
            "constant": false,
            "inputs": [
                {
                    "name": "hashDiploma",
                    "type": "string"
                }
            ],
            "name": "diplomaRegister",
            "outputs": [],
            "payable": false,
            "stateMutability": "nonpayable",
            "type": "function"
        },
        {
            "constant": true,
            "inputs": [],
            "name": "getNumberOfProducts",
            "outputs": [
                {
                    "name": "numberOfDiplomas",
                    "type": "uint256"
                }
            ],
            "payable": false,
            "stateMutability": "view",
            "type": "function"
        },
        {
            "constant": true,
            "inputs": [
                {
                    "name": "id",
                    "type": "uint256"
                }
            ],
            "name": "getDiplomaOfId",
            "outputs": [
                {
                    "name": "hashDiploma",
                    "type": "string"
                },
                {
                    "name": "timestamp",
                    "type": "uint256"
                }
            ],
            "payable": false,
            "stateMutability": "view",
            "type": "function"
        },
        {
            "constant": true,
            "inputs": [
                {
                    "name": "diplomaCode",
                    "type": "string"
                }
            ],
            "name": "getIdOfCode",
            "outputs": [
                {
                    "name": "id",
                    "type": "uint256"
                }
            ],
            "payable": false,
            "stateMutability": "view",
            "type": "function"
        },
        {
            "constant": false,
            "inputs": [
                {
                    "name": "hashScoreBoard",
                    "type": "string"
                }
            ],
            "name": "scoreBoardRegister",
            "outputs": [],
            "payable": false,
            "stateMutability": "nonpayable",
            "type": "function"
        },
        {
            "constant": false,
            "inputs": [],
            "name": "checkCount",
            "outputs": [],
            "payable": false,
            "stateMutability": "nonpayable",
            "type": "function"
        },
        {
            "constant": true,
            "inputs": [],
            "name": "getNumberOfScoreBoard",
            "outputs": [
                {
                    "name": "numberOfScoreBoards",
                    "type": "uint256"
                }
            ],
            "payable": false,
            "stateMutability": "view",
            "type": "function"
        },
        {
            "constant": true,
            "inputs": [],
            "name": "getNumberOfCountCheck",
            "outputs": [
                {
                    "name": "numberOfCountCheck",
                    "type": "uint256"
                }
            ],
            "payable": false,
            "stateMutability": "view",
            "type": "function"
        },
        {
            "constant": true,
            "inputs": [
                {
                    "name": "id",
                    "type": "uint256"
                }
            ],
            "name": "getScoreBoardOfId",
            "outputs": [
                {
                    "name": "hashScoreBoard",
                    "type": "string"
                },
                {
                    "name": "timestamp",
                    "type": "uint256"
                }
            ],
            "payable": false,
            "stateMutability": "view",
            "type": "function"
        },
        {
            "constant": true,
            "inputs": [
                {
                    "name": "ScoreBoardCode",
                    "type": "string"
                }
            ],
            "name": "getIdOfBoardScore",
            "outputs": [
                {
                    "name": "id",
                    "type": "uint256"
                }
            ],
            "payable": false,
            "stateMutability": "view",
            "type": "function"
        },
        {
            "constant": false,
            "inputs": [
                {
                    "name": "addr",
                    "type": "address"
                }
            ],
            "name": "addUser",
            "outputs": [],
            "payable": false,
            "stateMutability": "nonpayable",
            "type": "function"
        }
    ],
    "bytecode": "0x608060405234801561001057600080fd5b5033600860006101000a81548173ffffffffffffffffffffffffffffffffffffffff021916908373ffffffffffffffffffffffffffffffffffffffff160217905550600160058190555060016007819055506000600681905550610bba806100796000396000f3006080604052600436106100af576000357c0100000000000000000000000000000000000000000000000000000000900463ffffffff1680632b719ee2146100b45780633ffd81fb146100cb578063421b2d8b146100f6578063878c7755146101395780638fc722e2146101b65780639205cd691461021f57806397b77e0514610288578063f1af14ca14610335578063f77a7f7f14610360578063fdebc52d146103dd578063ff6c63f41461048a575b600080fd5b3480156100c057600080fd5b506100c96104b5565b005b3480156100d757600080fd5b506100e0610525565b6040518082815260200191505060405180910390f35b34801561010257600080fd5b50610137600480360381019080803573ffffffffffffffffffffffffffffffffffffffff169060200190929190505050610532565b005b34801561014557600080fd5b506101a0600480360381019080803590602001908201803590602001908080601f01602080910402602001604051908101604052809392919081815260200183838082843782019150505050505091929192905050506105e8565b6040518082815260200191505060405180910390f35b3480156101c257600080fd5b5061021d600480360381019080803590602001908201803590602001908080601f016020809104026020016040519081016040528093929190818152602001838380828437820191505050505050919291929050505061065d565b005b34801561022b57600080fd5b50610286600480360381019080803590602001908201803590602001908080601f016020809104026020016040519081016040528093929190818152602001838380828437820191505050505050919291929050505061078a565b005b34801561029457600080fd5b506102b3600480360381019080803590602001909291905050506108b7565b6040518080602001838152602001828103825284818151815260200191508051906020019080838360005b838110156102f95780820151818401526020810190506102de565b50505050905090810190601f1680156103265780820380516001836020036101000a031916815260200191505b50935050505060405180910390f35b34801561034157600080fd5b5061034a61098a565b6040518082815260200191505060405180910390f35b34801561036c57600080fd5b506103c7600480360381019080803590602001908201803590602001908080601f0160208091040260200160405190810160405280939291908181526020018383808284378201915050505050509192919290505050610994565b6040518082815260200191505060405180910390f35b3480156103e957600080fd5b5061040860048036038101908080359060200190929190505050610a09565b6040518080602001838152602001828103825284818151815260200191508051906020019080838360005b8381101561044e578082015181840152602081019050610433565b50505050905090810190601f16801561047b5780820380516001836020036101000a031916815260200191505b50935050505060405180910390f35b34801561049657600080fd5b5061049f610adc565b6040518082815260200191505060405180910390f35b600860009054906101000a900473ffffffffffffffffffffffffffffffffffffffff1673ffffffffffffffffffffffffffffffffffffffff163373ffffffffffffffffffffffffffffffffffffffff1614151561051157600080fd5b600660008154809291906001019190505550565b6000600160055403905090565b600860009054906101000a900473ffffffffffffffffffffffffffffffffffffffff1673ffffffffffffffffffffffffffffffffffffffff163373ffffffffffffffffffffffffffffffffffffffff1614151561058e57600080fd5b60016000808373ffffffffffffffffffffffffffffffffffffffff1673ffffffffffffffffffffffffffffffffffffffff16815260200190815260200160002060006101000a81548160ff02191690831515021790555050565b60006004826040518082805190602001908083835b60208310151561062257805182526020820191506020810190506020830392506105fd565b6001836020036101000a0380198251168184511680821785525050505050509050019150509081526020016040518091039020549050919050565b600860009054906101000a900473ffffffffffffffffffffffffffffffffffffffff1673ffffffffffffffffffffffffffffffffffffffff163373ffffffffffffffffffffffffffffffffffffffff161415156106b957600080fd5b6005546003826040518082805190602001908083835b6020831015156106f457805182526020820191506020810190506020830392506106cf565b6001836020036101000a038019825116818451168082178552505050505050905001915050908152602001604051809103902081905550806001600060055481526020019081526020016000206000019080519060200190610757929190610ae9565b50426001600060055481526020019081526020016000206001018190555060056000815480929190600101919050555050565b600860009054906101000a900473ffffffffffffffffffffffffffffffffffffffff1673ffffffffffffffffffffffffffffffffffffffff163373ffffffffffffffffffffffffffffffffffffffff161415156107e657600080fd5b6007546004826040518082805190602001908083835b60208310151561082157805182526020820191506020810190506020830392506107fc565b6001836020036101000a038019825116818451168082178552505050505050905001915050908152602001604051809103902081905550806002600060075481526020019081526020016000206000019080519060200190610884929190610ae9565b50426002600060075481526020019081526020016000206001018190555060076000815480929190600101919050555050565b60606000600160008481526020019081526020016000206000018054600181600116156101000203166002900480601f0160208091040260200160405190810160405280929190818152602001828054600181600116156101000203166002900480156109655780601f1061093a57610100808354040283529160200191610965565b820191906000526020600020905b81548152906001019060200180831161094857829003601f168201915b5050505050915060016000848152602001908152602001600020600101549050915091565b6000600654905090565b60006003826040518082805190602001908083835b6020831015156109ce57805182526020820191506020810190506020830392506109a9565b6001836020036101000a0380198251168184511680821785525050505050509050019150509081526020016040518091039020549050919050565b60606000600260008481526020019081526020016000206000018054600181600116156101000203166002900480601f016020809104026020016040519081016040528092919081815260200182805460018160011615610100020316600290048015610ab75780601f10610a8c57610100808354040283529160200191610ab7565b820191906000526020600020905b815481529060010190602001808311610a9a57829003601f168201915b5050505050915060026000848152602001908152602001600020600101549050915091565b6000600160075403905090565b828054600181600116156101000203166002900490600052602060002090601f016020900481019282601f10610b2a57805160ff1916838001178555610b58565b82800160010185558215610b58579182015b82811115610b57578251825591602001919060010190610b3c565b5b509050610b659190610b69565b5090565b610b8b91905b80821115610b87576000816000905550600101610b6f565b5090565b905600a165627a7a7230582052bbd4b03a49853103b03f99e2dd189d2636ecae7cbc87b092aa21f66f78a3c80029",
    "source": "pragma solidity ^ 0.4.23;\ncontract Certificate2{\n\n  // Mapping from user address to boolean type\n  mapping(address => bool) isAuthorized;\n\n  // Define struct\n  struct Diploma {\n    string _hashDiploma;\n    uint _timestamp;\n  }\n   struct ScoreBoard {\n    string _hashScoreBoard;\n    uint _timestamp;\n  }\n\n\n  mapping(uint => Diploma) _Diplomas;\n  mapping(uint => ScoreBoard) _ScoreBoards;\n\n\n  mapping(string => uint) _productCodeToId;\n  mapping(string => uint) _productBoardCodetoId;\n\n\n  uint _numberOfDiplomas;\n  uint _checkCount;\n  uint _numberOfScoreBoards;\n \n\n  address _admin;\n  //mapping(string => address) _productCodeToBACAddress;\n\n  // As a prerequisite for some functions\n  modifier onlyAdmin {\n    require(msg.sender == _admin);\n    _;\n  }\n\n  modifier onlyAuthorized(address addr) {\n    require(isAuthorized[addr] == true);\n    _;\n  }\n\n  // Constructor function\n  constructor() public {\n    _admin = msg.sender;\n    _numberOfDiplomas = 1;\n    _numberOfScoreBoards=1;\n    _checkCount=0;\n  }\n\n  // Register product information\n  //diploma\n  function diplomaRegister( string hashDiploma) public onlyAdmin {\n\n     //require(uint(_productCodeToId[hashDiploma]).length == 0);\n\n\n\n    \n    _productCodeToId[hashDiploma] = _numberOfDiplomas;\n    \n    \n    _Diplomas[_numberOfDiplomas]._hashDiploma = hashDiploma;\n    _Diplomas[_numberOfDiplomas]._timestamp = now;\n    _numberOfDiplomas++;\n\n  }\n\n\n  // Get the number of products\n  function getNumberOfProducts() constant public returns(uint numberOfDiplomas) {\n    numberOfDiplomas = _numberOfDiplomas - 1;\n  }\n\n  // Get product information by id\n  function getDiplomaOfId(uint id) constant public returns(string hashDiploma,uint timestamp){\n\n\n    hashDiploma = _Diplomas[id]._hashDiploma;\n    timestamp =  _Diplomas[id]._timestamp;\n  }\n\n  function getIdOfCode(string diplomaCode) constant public returns(uint id) {\n    id = _productCodeToId[diplomaCode];\n    \n  }\n\n\n\n  // -----------------------------ScoreBoard------------------------------\n  //scoreBoard\n\n\n\n\n   function scoreBoardRegister( string hashScoreBoard) public onlyAdmin {\n\n     //require(uint(_productBoardCodetoId[hashScoreBoard]).length == 0);\n\n    \n    _productBoardCodetoId[hashScoreBoard] = _numberOfScoreBoards;\n\n    \n    \n    _ScoreBoards[_numberOfScoreBoards]._hashScoreBoard = hashScoreBoard;\n    _ScoreBoards[_numberOfScoreBoards]._timestamp = now;\n    _numberOfScoreBoards++;\n\n  }\nfunction checkCount() public onlyAdmin {\n\n     //require(uint(_productBoardCodetoId[hashScoreBoard]).length == 0);\n    _checkCount++;\n\n  }\n\n  // Get the number of products\n  function getNumberOfScoreBoard() constant public returns(uint numberOfScoreBoards) {\n    numberOfScoreBoards = _numberOfScoreBoards - 1;\n  }\n   function getNumberOfCountCheck() constant public returns(uint numberOfCountCheck) {\n    numberOfCountCheck = _checkCount;\n  }\n\n  // Get product information by id\n  function getScoreBoardOfId(uint id) constant public returns(string hashScoreBoard,uint timestamp){\n\n\n    hashScoreBoard = _ScoreBoards[id]._hashScoreBoard;\n    timestamp =  _ScoreBoards[id]._timestamp;\n  }\n\n  function getIdOfBoardScore(string ScoreBoardCode) constant public returns(uint id) {\n    id = _productBoardCodetoId[ScoreBoardCode];\n  }\n\n//   function getAddressOfCode(string productCode) constant public returns(address addr) {\n//     addr = _productCodeToBACAddress[productCode];\n//   }\n\n  // Add user to authorization list\n  function addUser(address addr) public onlyAdmin {\n    isAuthorized[addr] = true;\n  }\n}\n",
    "sourcePath": "/Users/macbook/Desktop/DemoSystem/certificatesystem/contracts/Certificate2.sol",
    "compiler": {
        "name": "solc",
        "version": "0.4.23+commit.124ca40d.Emscripten.clang"
    },
    "schemaVersion": "3.4.1",
    "updatedAt": "2022-01-02T05:41:09.545Z",
    "networkType": "ethereum",
    "devdoc": {
        "methods": {}
    },
    "userdoc": {
        "methods": {}
    }
}