{
  "contractName": "Certificate",
  "abi": [
    {
      "inputs": [],
      "payable": false,
      "stateMutability": "nonpayable",
      "type": "constructor"
    },
    {
      "constant": false,
      "inputs": [
        {
          "name": "nameStudent",
          "type": "string"
        },
        {
          "name": "nameSchool",
          "type": "string"
        },
        {
          "name": "nameDiploma",
          "type": "string"
        },
        {
          "name": "yearStart",
          "type": "string"
        },
        {
          "name": "urlDiploma",
          "type": "string"
        },
        {
          "name": "hashDiploma",
          "type": "string"
        },
        {
          "name": "diplomaCode",
          "type": "string"
        },
        {
          "name": "urlScoreBoard",
          "type": "string"
        }
      ],
      "name": "diplomaRegister",
      "outputs": [],
      "payable": false,
      "stateMutability": "nonpayable",
      "type": "function"
    },
    {
      "constant": true,
      "inputs": [
        {
          "name": "id",
          "type": "uint256"
        }
      ],
      "name": "getDiplomaOfId",
      "outputs": [
        {
          "name": "nameStudent",
          "type": "string"
        },
        {
          "name": "nameSchool",
          "type": "string"
        },
        {
          "name": "nameDiploma",
          "type": "string"
        },
        {
          "name": "yearStart",
          "type": "string"
        },
        {
          "name": "urlDiploma",
          "type": "string"
        },
        {
          "name": "diplomaCode",
          "type": "string"
        },
        {
          "name": "urlScoreBoard",
          "type": "string"
        }
      ],
      "payable": false,
      "stateMutability": "view",
      "type": "function"
    },
    {
      "constant": true,
      "inputs": [
        {
          "name": "diplomaCode",
          "type": "string"
        }
      ],
      "name": "getIdOfCode",
      "outputs": [
        {
          "name": "id",
          "type": "uint256"
        }
      ],
      "payable": false,
      "stateMutability": "view",
      "type": "function"
    },
    {
      "constant": true,
      "inputs": [
        {
          "name": "hashDiploma",
          "type": "string"
        }
      ],
      "name": "getIdOfName",
      "outputs": [
        {
          "name": "id",
          "type": "uint256"
        }
      ],
      "payable": false,
      "stateMutability": "view",
      "type": "function"
    },
    {
      "constant": false,
      "inputs": [
        {
          "name": "addr",
          "type": "address"
        }
      ],
      "name": "addUser",
      "outputs": [],
      "payable": false,
      "stateMutability": "nonpayable",
      "type": "function"
    },
    {
      "constant": false,
      "inputs": [
        {
          "name": "addr",
          "type": "address"
        }
      ],
      "name": "removeUser",
      "outputs": [],
      "payable": false,
      "stateMutability": "nonpayable",
      "type": "function"
    },
    {
      "constant": true,
      "inputs": [
        {
          "name": "addr",
          "type": "address"
        }
      ],
      "name": "checkUser",
      "outputs": [
        {
          "name": "result",
          "type": "bool"
        }
      ],
      "payable": false,
      "stateMutability": "view",
      "type": "function"
    },
    {
      "constant": false,
      "inputs": [],
      "name": "deleteContract",
      "outputs": [],
      "payable": false,
      "stateMutability": "nonpayable",
      "type": "function"
    }
  ],
  "bytecode": "0x608060405234801561001057600080fd5b5033600560006101000a81548173ffffffffffffffffffffffffffffffffffffffff021916908373ffffffffffffffffffffffffffffffffffffffff16021790555060016004819055506113ca806100696000396000f30060806040526004361061008e576000357c0100000000000000000000000000000000000000000000000000000000900463ffffffff1680631e9d48cf14610093578063396a4f02146100ee578063421b2d8b1461016b5780635a58cd4c146101ae57806397b77e05146101c557806398575188146104f3578063dd72c61214610536578063f77a7f7f14610789575b600080fd5b34801561009f57600080fd5b506100d4600480360381019080803573ffffffffffffffffffffffffffffffffffffffff169060200190929190505050610806565b604051808215151515815260200191505060405180910390f35b3480156100fa57600080fd5b50610155600480360381019080803590602001908201803590602001908080601f016020809104026020016040519081016040528093929190818152602001838380828437820191505050505050919291929050505061085b565b6040518082815260200191505060405180910390f35b34801561017757600080fd5b506101ac600480360381019080803573ffffffffffffffffffffffffffffffffffffffff1690602001909291905050506108d0565b005b3480156101ba57600080fd5b506101c3610986565b005b3480156101d157600080fd5b506101f060048036038101908080359060200190929190505050610a1d565b604051808060200180602001806020018060200180602001806020018060200188810388528f818151815260200191508051906020019080838360005b8381101561024857808201518184015260208101905061022d565b50505050905090810190601f1680156102755780820380516001836020036101000a031916815260200191505b5088810387528e818151815260200191508051906020019080838360005b838110156102ae578082015181840152602081019050610293565b50505050905090810190601f1680156102db5780820380516001836020036101000a031916815260200191505b5088810386528d818151815260200191508051906020019080838360005b838110156103145780820151818401526020810190506102f9565b50505050905090810190601f1680156103415780820380516001836020036101000a031916815260200191505b5088810385528c818151815260200191508051906020019080838360005b8381101561037a57808201518184015260208101905061035f565b50505050905090810190601f1680156103a75780820380516001836020036101000a031916815260200191505b5088810384528b818151815260200191508051906020019080838360005b838110156103e05780820151818401526020810190506103c5565b50505050905090810190601f16801561040d5780820380516001836020036101000a031916815260200191505b5088810383528a818151815260200191508051906020019080838360005b8381101561044657808201518184015260208101905061042b565b50505050905090810190601f1680156104735780820380516001836020036101000a031916815260200191505b50888103825289818151815260200191508051906020019080838360005b838110156104ac578082015181840152602081019050610491565b50505050905090810190601f1680156104d95780820380516001836020036101000a031916815260200191505b509e50505050505050505050505050505060405180910390f35b3480156104ff57600080fd5b50610534600480360381019080803573ffffffffffffffffffffffffffffffffffffffff169060200190929190505050610f0a565b005b34801561054257600080fd5b50610787600480360381019080803590602001908201803590602001908080601f0160208091040260200160405190810160405280939291908181526020018383808284378201915050505050509192919290803590602001908201803590602001908080601f0160208091040260200160405190810160405280939291908181526020018383808284378201915050505050509192919290803590602001908201803590602001908080601f0160208091040260200160405190810160405280939291908181526020018383808284378201915050505050509192919290803590602001908201803590602001908080601f0160208091040260200160405190810160405280939291908181526020018383808284378201915050505050509192919290803590602001908201803590602001908080601f0160208091040260200160405190810160405280939291908181526020018383808284378201915050505050509192919290803590602001908201803590602001908080601f0160208091040260200160405190810160405280939291908181526020018383808284378201915050505050509192919290803590602001908201803590602001908080601f0160208091040260200160405190810160405280939291908181526020018383808284378201915050505050509192919290803590602001908201803590602001908080601f0160208091040260200160405190810160405280939291908181526020018383808284378201915050505050509192919290505050610fc0565b005b34801561079557600080fd5b506107f0600480360381019080803590602001908201803590602001908080601f0160208091040260200160405190810160405280939291908181526020018383808284378201915050505050509192919290505050611284565b6040518082815260200191505060405180910390f35b60008060008373ffffffffffffffffffffffffffffffffffffffff1673ffffffffffffffffffffffffffffffffffffffff16815260200190815260200160002060009054906101000a900460ff169050919050565b60006003826040518082805190602001908083835b6020831015156108955780518252602082019150602081019050602083039250610870565b6001836020036101000a0380198251168184511680821785525050505050509050019150509081526020016040518091039020549050919050565b600560009054906101000a900473ffffffffffffffffffffffffffffffffffffffff1673ffffffffffffffffffffffffffffffffffffffff163373ffffffffffffffffffffffffffffffffffffffff1614151561092c57600080fd5b60016000808373ffffffffffffffffffffffffffffffffffffffff1673ffffffffffffffffffffffffffffffffffffffff16815260200190815260200160002060006101000a81548160ff02191690831515021790555050565b600560009054906101000a900473ffffffffffffffffffffffffffffffffffffffff1673ffffffffffffffffffffffffffffffffffffffff163373ffffffffffffffffffffffffffffffffffffffff161415156109e257600080fd5b600560009054906101000a900473ffffffffffffffffffffffffffffffffffffffff1673ffffffffffffffffffffffffffffffffffffffff16ff5b6060806060806060806060600160008981526020019081526020016000206000018054600181600116156101000203166002900480601f016020809104026020016040519081016040528092919081815260200182805460018160011615610100020316600290048015610ad25780601f10610aa757610100808354040283529160200191610ad2565b820191906000526020600020905b815481529060010190602001808311610ab557829003601f168201915b50505050509650600160008981526020019081526020016000206001018054600181600116156101000203166002900480601f016020809104026020016040519081016040528092919081815260200182805460018160011615610100020316600290048015610b835780601f10610b5857610100808354040283529160200191610b83565b820191906000526020600020905b815481529060010190602001808311610b6657829003601f168201915b50505050509550600160008981526020019081526020016000206002018054600181600116156101000203166002900480601f016020809104026020016040519081016040528092919081815260200182805460018160011615610100020316600290048015610c345780601f10610c0957610100808354040283529160200191610c34565b820191906000526020600020905b815481529060010190602001808311610c1757829003601f168201915b50505050509450600160008981526020019081526020016000206003018054600181600116156101000203166002900480601f016020809104026020016040519081016040528092919081815260200182805460018160011615610100020316600290048015610ce55780601f10610cba57610100808354040283529160200191610ce5565b820191906000526020600020905b815481529060010190602001808311610cc857829003601f168201915b50505050509350600160008981526020019081526020016000206004018054600181600116156101000203166002900480601f016020809104026020016040519081016040528092919081815260200182805460018160011615610100020316600290048015610d965780601f10610d6b57610100808354040283529160200191610d96565b820191906000526020600020905b815481529060010190602001808311610d7957829003601f168201915b50505050509250600160008981526020019081526020016000206006018054600181600116156101000203166002900480601f016020809104026020016040519081016040528092919081815260200182805460018160011615610100020316600290048015610e475780601f10610e1c57610100808354040283529160200191610e47565b820191906000526020600020905b815481529060010190602001808311610e2a57829003601f168201915b50505050509150600160008981526020019081526020016000206007018054600181600116156101000203166002900480601f016020809104026020016040519081016040528092919081815260200182805460018160011615610100020316600290048015610ef85780601f10610ecd57610100808354040283529160200191610ef8565b820191906000526020600020905b815481529060010190602001808311610edb57829003601f168201915b50505050509050919395979092949650565b600560009054906101000a900473ffffffffffffffffffffffffffffffffffffffff1673ffffffffffffffffffffffffffffffffffffffff163373ffffffffffffffffffffffffffffffffffffffff16141515610f6657600080fd5b60008060008373ffffffffffffffffffffffffffffffffffffffff1673ffffffffffffffffffffffffffffffffffffffff16815260200190815260200160002060006101000a81548160ff02191690831515021790555050565b600560009054906101000a900473ffffffffffffffffffffffffffffffffffffffff1673ffffffffffffffffffffffffffffffffffffffff163373ffffffffffffffffffffffffffffffffffffffff1614151561101c57600080fd5b6004546002836040518082805190602001908083835b6020831015156110575780518252602082019150602081019050602083039250611032565b6001836020036101000a0380198251168184511680821785525050505050509050019150509081526020016040518091039020819055506004546003846040518082805190602001908083835b6020831015156110c957805182526020820191506020810190506020830392506110a4565b6001836020036101000a03801982511681845116808217855250505050505090500191505090815260200160405180910390208190555087600160006004548152602001908152602001600020600001908051906020019061112c9291906112f9565b508660016000600454815260200190815260200160002060010190805190602001906111599291906112f9565b508560016000600454815260200190815260200160002060020190805190602001906111869291906112f9565b508460016000600454815260200190815260200160002060030190805190602001906111b39291906112f9565b508360016000600454815260200190815260200160002060040190805190602001906111e09291906112f9565b5082600160006004548152602001908152602001600020600501908051906020019061120d9291906112f9565b5081600160006004548152602001908152602001600020600601908051906020019061123a9291906112f9565b508060016000600454815260200190815260200160002060070190805190602001906112679291906112f9565b506004600081548092919060010191905055505050505050505050565b60006002826040518082805190602001908083835b6020831015156112be5780518252602082019150602081019050602083039250611299565b6001836020036101000a0380198251168184511680821785525050505050509050019150509081526020016040518091039020549050919050565b828054600181600116156101000203166002900490600052602060002090601f016020900481019282601f1061133a57805160ff1916838001178555611368565b82800160010185558215611368579182015b8281111561136757825182559160200191906001019061134c565b5b5090506113759190611379565b5090565b61139b91905b8082111561139757600081600090555060010161137f565b5090565b905600a165627a7a72305820ef7e87dae7eff582c5fbed55f4d33354386c048d2bc65c2f337efa7ff2f267410029",
  "source": "pragma solidity ^ 0.4.23;\ncontract Certificate{\n\n  // Mapping from user address to boolean type\n  mapping(address => bool) isAuthorized;\n\n  // Define struct\n  struct Diploma {\n    string _nameStudent;\n    string _nameSchool;\n    string _nameDiploma;\n    string _yearStart;\n    string _urlDiploma;\n    string _hashDiploma;\n    string _diplomaCode;\n    string _urlScoreBoard;\n  }\n\n\n  mapping(uint => Diploma) _Diplomas;\n\n\n  mapping(string => uint) _productCodeToId;\n  mapping(string => uint) _productNametoId;\n\n\n  uint _numberOfDiplomas;\n \n\n  address _admin;\n  //mapping(string => address) _productCodeToBACAddress;\n\n  // As a prerequisite for some functions\n  modifier onlyAdmin {\n    require(msg.sender == _admin);\n    _;\n  }\n\n  modifier onlyAuthorized(address addr) {\n    require(isAuthorized[addr] == true);\n    _;\n  }\n\n  // Constructor function\n  constructor() public {\n    _admin = msg.sender;\n    _numberOfDiplomas = 1;\n  }\n\n  // Register product information\n  function diplomaRegister(string nameStudent, string nameSchool,string nameDiploma, string yearStart,string urlDiploma,string hashDiploma,string diplomaCode,string urlScoreBoard) public onlyAdmin {\n\n    // require(bytes(_productCodeToName[productCode]).length == 0);\n\n    // require(bytes(productName).length >= 3 && bytes(productName).length <= 64);\n    // require(bytes(productCode).length == 13);\n    // require(bytes(rawMaterials).length >= 9);\n\n    \n    _productCodeToId[diplomaCode] = _numberOfDiplomas;\n    _productNametoId[hashDiploma] = _numberOfDiplomas;\n    \n    _Diplomas[_numberOfDiplomas]._nameStudent = nameStudent;\n    _Diplomas[_numberOfDiplomas]._nameSchool = nameSchool;\n    _Diplomas[_numberOfDiplomas]._nameDiploma = nameDiploma;\n    _Diplomas[_numberOfDiplomas]._yearStart = yearStart;\n    _Diplomas[_numberOfDiplomas]._urlDiploma = urlDiploma;\n    _Diplomas[_numberOfDiplomas]._hashDiploma = hashDiploma;\n    _Diplomas[_numberOfDiplomas]._diplomaCode = diplomaCode;\n     _Diplomas[_numberOfDiplomas]._urlScoreBoard = urlScoreBoard;\n    _numberOfDiplomas++;\n\n  }\n\n  // Register raw material information\n//   function materialRegister(string materialName, string materialCode, address BACAddress) public onlyAdmin {\n\n//     require(bytes(_productCodeToName[materialCode]).length == 0);\n\n//     require(bytes(materialName).length >= 3 && bytes(materialName).length <= 64);\n//     require(bytes(materialCode).length == 9);\n\n//     _productCodeToName[materialCode] = materialName;\n//     _productCodeToId[materialCode] = _numberOfProducts;\n//     _productCodeToBACAddress[materialCode] = BACAddress;\n\n//     _products[_numberOfProducts]._productName = materialName;\n//     _products[_numberOfProducts]._productCode = materialCode;\n//     _products[_numberOfProducts]._rawMaterials = \"/\";\n//     _products[_numberOfProducts]._productOwner = msg.sender;\n//     _products[_numberOfProducts]._timestamp = now;\n//     _products[_numberOfProducts]._BACAddress = BACAddress;\n\n//     _numberOfProducts++;\n\n//   }\n\n  // Get the number of products\n \n\n  // Get product information by id\n  function getDiplomaOfId(uint id) constant public returns(string nameStudent, string nameSchool, string nameDiploma, string yearStart, string urlDiploma,string diplomaCode,string urlScoreBoard){\n\n    nameStudent = _Diplomas[id]._nameStudent;\n    nameSchool = _Diplomas[id]._nameSchool;\n    nameDiploma = _Diplomas[id]._nameDiploma;\n    yearStart = _Diplomas[id]._yearStart;\n    urlDiploma = _Diplomas[id]._urlDiploma;\n    diplomaCode = _Diplomas[id]._diplomaCode;\n    urlScoreBoard = _Diplomas[id]._urlScoreBoard;\n  }\n\n  function getIdOfCode(string diplomaCode) constant public returns(uint id) {\n    id = _productCodeToId[diplomaCode];\n  }\n  function getIdOfName(string hashDiploma) constant public returns(uint id)\n  {\n    id = _productNametoId[hashDiploma];\n  }\n\n//   function getAddressOfCode(string productCode) constant public returns(address addr) {\n//     addr = _productCodeToBACAddress[productCode];\n//   }\n\n  // Add user to authorization list\n  function addUser(address addr) public onlyAdmin {\n    isAuthorized[addr] = true;\n  }\n\n  // Remove user\n  function removeUser(address addr) public onlyAdmin {\n    isAuthorized[addr] = false;\n  }\n\n  // Check if the user is authorized\n  function checkUser(address addr) constant public returns(bool result) {\n    result = isAuthorized[addr];\n  }\n\n  // Destroy the contract\n  function deleteContract() public onlyAdmin {\n    selfdestruct(_admin);\n  }\n\n}",
  "sourcePath": "/Users/macbook/Desktop/DemoSystem/certificatesystem/contracts/Certificate.sol",
  "compiler": {
    "name": "solc",
    "version": "0.4.23+commit.124ca40d.Emscripten.clang"
  },
  "schemaVersion": "3.4.1",
  "updatedAt": "2021-10-03T15:07:02.402Z",
  "networkType": "ethereum",
  "devdoc": {
    "methods": {}
  },
  "userdoc": {
    "methods": {}
  }
}