{
  "contractName": "Certificate",
  "abi": [
    {
      "inputs": [],
      "payable": false,
      "stateMutability": "nonpayable",
      "type": "constructor"
    },
    {
      "constant": false,
      "inputs": [
        {
          "name": "hashDiploma",
          "type": "string"
        }
      ],
      "name": "diplomaRegister",
      "outputs": [],
      "payable": false,
      "stateMutability": "nonpayable",
      "type": "function"
    },
    {
      "constant": true,
      "inputs": [],
      "name": "getNumberOfProducts",
      "outputs": [
        {
          "name": "numberOfDiplomas",
          "type": "uint256"
        }
      ],
      "payable": false,
      "stateMutability": "view",
      "type": "function"
    },
    {
      "constant": true,
      "inputs": [
        {
          "name": "id",
          "type": "uint256"
        }
      ],
      "name": "getDiplomaOfId",
      "outputs": [
        {
          "name": "hashDiploma",
          "type": "string"
        },
        {
          "name": "timestamp",
          "type": "uint256"
        }
      ],
      "payable": false,
      "stateMutability": "view",
      "type": "function"
    },
    {
      "constant": true,
      "inputs": [
        {
          "name": "diplomaCode",
          "type": "string"
        }
      ],
      "name": "getIdOfCode",
      "outputs": [
        {
          "name": "id",
          "type": "uint256"
        }
      ],
      "payable": false,
      "stateMutability": "view",
      "type": "function"
    },
    {
      "constant": true,
      "inputs": [
        {
          "name": "hashDiploma",
          "type": "string"
        }
      ],
      "name": "getIdOfName",
      "outputs": [
        {
          "name": "id",
          "type": "uint256"
        }
      ],
      "payable": false,
      "stateMutability": "view",
      "type": "function"
    },
    {
      "constant": false,
      "inputs": [
        {
          "name": "addr",
          "type": "address"
        }
      ],
      "name": "addUser",
      "outputs": [],
      "payable": false,
      "stateMutability": "nonpayable",
      "type": "function"
    },
    {
      "constant": false,
      "inputs": [
        {
          "name": "addr",
          "type": "address"
        }
      ],
      "name": "removeUser",
      "outputs": [],
      "payable": false,
      "stateMutability": "nonpayable",
      "type": "function"
    },
    {
      "constant": true,
      "inputs": [
        {
          "name": "addr",
          "type": "address"
        }
      ],
      "name": "checkUser",
      "outputs": [
        {
          "name": "result",
          "type": "bool"
        }
      ],
      "payable": false,
      "stateMutability": "view",
      "type": "function"
    },
    {
      "constant": false,
      "inputs": [],
      "name": "deleteContract",
      "outputs": [],
      "payable": false,
      "stateMutability": "nonpayable",
      "type": "function"
    }
  ],
  "bytecode": "0x608060405234801561001057600080fd5b5033600560006101000a81548173ffffffffffffffffffffffffffffffffffffffff021916908373ffffffffffffffffffffffffffffffffffffffff16021790555060016004819055506109f1806100696000396000f300608060405260043610610099576000357c0100000000000000000000000000000000000000000000000000000000900463ffffffff1680631e9d48cf1461009e578063396a4f02146100f95780633ffd81fb14610176578063421b2d8b146101a15780635a58cd4c146101e45780638fc722e2146101fb57806397b77e05146102645780639857518814610311578063f77a7f7f14610354575b600080fd5b3480156100aa57600080fd5b506100df600480360381019080803573ffffffffffffffffffffffffffffffffffffffff1690602001909291905050506103d1565b604051808215151515815260200191505060405180910390f35b34801561010557600080fd5b50610160600480360381019080803590602001908201803590602001908080601f0160208091040260200160405190810160405280939291908181526020018383808284378201915050505050509192919290505050610426565b6040518082815260200191505060405180910390f35b34801561018257600080fd5b5061018b61049b565b6040518082815260200191505060405180910390f35b3480156101ad57600080fd5b506101e2600480360381019080803573ffffffffffffffffffffffffffffffffffffffff1690602001909291905050506104a8565b005b3480156101f057600080fd5b506101f961055e565b005b34801561020757600080fd5b50610262600480360381019080803590602001908201803590602001908080601f01602080910402602001604051908101604052809392919081815260200183838082843782019150505050505091929192905050506105f5565b005b34801561027057600080fd5b5061028f60048036038101908080359060200190929190505050610722565b6040518080602001838152602001828103825284818151815260200191508051906020019080838360005b838110156102d55780820151818401526020810190506102ba565b50505050905090810190601f1680156103025780820380516001836020036101000a031916815260200191505b50935050505060405180910390f35b34801561031d57600080fd5b50610352600480360381019080803573ffffffffffffffffffffffffffffffffffffffff1690602001909291905050506107f5565b005b34801561036057600080fd5b506103bb600480360381019080803590602001908201803590602001908080601f01602080910402602001604051908101604052809392919081815260200183838082843782019150505050505091929192905050506108ab565b6040518082815260200191505060405180910390f35b60008060008373ffffffffffffffffffffffffffffffffffffffff1673ffffffffffffffffffffffffffffffffffffffff16815260200190815260200160002060009054906101000a900460ff169050919050565b60006003826040518082805190602001908083835b602083101515610460578051825260208201915060208101905060208303925061043b565b6001836020036101000a0380198251168184511680821785525050505050509050019150509081526020016040518091039020549050919050565b6000600160045403905090565b600560009054906101000a900473ffffffffffffffffffffffffffffffffffffffff1673ffffffffffffffffffffffffffffffffffffffff163373ffffffffffffffffffffffffffffffffffffffff1614151561050457600080fd5b60016000808373ffffffffffffffffffffffffffffffffffffffff1673ffffffffffffffffffffffffffffffffffffffff16815260200190815260200160002060006101000a81548160ff02191690831515021790555050565b600560009054906101000a900473ffffffffffffffffffffffffffffffffffffffff1673ffffffffffffffffffffffffffffffffffffffff163373ffffffffffffffffffffffffffffffffffffffff161415156105ba57600080fd5b600560009054906101000a900473ffffffffffffffffffffffffffffffffffffffff1673ffffffffffffffffffffffffffffffffffffffff16ff5b600560009054906101000a900473ffffffffffffffffffffffffffffffffffffffff1673ffffffffffffffffffffffffffffffffffffffff163373ffffffffffffffffffffffffffffffffffffffff1614151561065157600080fd5b6004546002826040518082805190602001908083835b60208310151561068c5780518252602082019150602081019050602083039250610667565b6001836020036101000a0380198251168184511680821785525050505050509050019150509081526020016040518091039020819055508060016000600454815260200190815260200160002060000190805190602001906106ef929190610920565b50426001600060045481526020019081526020016000206001018190555060046000815480929190600101919050555050565b60606000600160008481526020019081526020016000206000018054600181600116156101000203166002900480601f0160208091040260200160405190810160405280929190818152602001828054600181600116156101000203166002900480156107d05780601f106107a5576101008083540402835291602001916107d0565b820191906000526020600020905b8154815290600101906020018083116107b357829003601f168201915b5050505050915060016000848152602001908152602001600020600101549050915091565b600560009054906101000a900473ffffffffffffffffffffffffffffffffffffffff1673ffffffffffffffffffffffffffffffffffffffff163373ffffffffffffffffffffffffffffffffffffffff1614151561085157600080fd5b60008060008373ffffffffffffffffffffffffffffffffffffffff1673ffffffffffffffffffffffffffffffffffffffff16815260200190815260200160002060006101000a81548160ff02191690831515021790555050565b60006002826040518082805190602001908083835b6020831015156108e557805182526020820191506020810190506020830392506108c0565b6001836020036101000a0380198251168184511680821785525050505050509050019150509081526020016040518091039020549050919050565b828054600181600116156101000203166002900490600052602060002090601f016020900481019282601f1061096157805160ff191683800117855561098f565b8280016001018555821561098f579182015b8281111561098e578251825591602001919060010190610973565b5b50905061099c91906109a0565b5090565b6109c291905b808211156109be5760008160009055506001016109a6565b5090565b905600a165627a7a72305820522893114e176079d561c923263e0c61ad29dbb71b5e777d8b71fc60d7087bf30029",
  "source": "pragma solidity ^ 0.4.23;\ncontract Certificate{\n\n  // Mapping from user address to boolean type\n  mapping(address => bool) isAuthorized;\n\n  // Define struct\n  struct Diploma {\n    string _hashDiploma;\n    uint _timestamp;\n  }\n\n\n  mapping(uint => Diploma) _Diplomas;\n\n\n  mapping(string => uint) _productCodeToId;\n  mapping(string => uint) _productNametoId;\n\n\n  uint _numberOfDiplomas;\n \n\n  address _admin;\n  //mapping(string => address) _productCodeToBACAddress;\n\n  // As a prerequisite for some functions\n  modifier onlyAdmin {\n    require(msg.sender == _admin);\n    _;\n  }\n\n  modifier onlyAuthorized(address addr) {\n    require(isAuthorized[addr] == true);\n    _;\n  }\n\n  // Constructor function\n  constructor() public {\n    _admin = msg.sender;\n    _numberOfDiplomas = 1;\n  }\n\n  // Register product information\n  function diplomaRegister( string hashDiploma) public onlyAdmin {\n\n     //require(uint(_productCodeToId[hashDiploma]).length == 0);\n\n    // require(bytes(productName).length >= 3 && bytes(productName).length <= 64);\n    // require(bytes(productCode).length == 13);\n    // require(bytes(rawMaterials).length >= 9);\n\n    \n    _productCodeToId[hashDiploma] = _numberOfDiplomas;\n    //_productNametoId[hashDiploma] = _numberOfDiplomas;\n    \n    \n    _Diplomas[_numberOfDiplomas]._hashDiploma = hashDiploma;\n    _Diplomas[_numberOfDiplomas]._timestamp = now;\n    _numberOfDiplomas++;\n\n  }\n\n\n  // Get the number of products\n  function getNumberOfProducts() constant public returns(uint numberOfDiplomas) {\n    numberOfDiplomas = _numberOfDiplomas - 1;\n  }\n\n  // Get product information by id\n  function getDiplomaOfId(uint id) constant public returns(string hashDiploma,uint timestamp){\n\n\n    hashDiploma = _Diplomas[id]._hashDiploma;\n    timestamp =  _Diplomas[id]._timestamp;\n  }\n\n  function getIdOfCode(string diplomaCode) constant public returns(uint id) {\n    id = _productCodeToId[diplomaCode];\n  }\n  function getIdOfName(string hashDiploma) constant public returns(uint id)\n  {\n    id = _productNametoId[hashDiploma];\n  }\n\n//   function getAddressOfCode(string productCode) constant public returns(address addr) {\n//     addr = _productCodeToBACAddress[productCode];\n//   }\n\n  // Add user to authorization list\n  function addUser(address addr) public onlyAdmin {\n    isAuthorized[addr] = true;\n  }\n\n  // Remove user\n  function removeUser(address addr) public onlyAdmin {\n    isAuthorized[addr] = false;\n  }\n\n  // Check if the user is authorized\n  function checkUser(address addr) constant public returns(bool result) {\n    result = isAuthorized[addr];\n  }\n\n  // Destroy the contract\n  function deleteContract() public onlyAdmin {\n    selfdestruct(_admin);\n  }\n\n}",
  "sourcePath": "C:\\Users\\Administrator\\Desktop\\certificatesystem\\certificatesystem\\contracts\\Certificate.sol",
  "compiler": {
    "name": "solc",
    "version": "0.4.23+commit.124ca40d.Emscripten.clang"
  },
  "schemaVersion": "3.4.3",
  "updatedAt": "2021-12-06T04:36:38.158Z",
  "networkType": "ethereum",
  "devdoc": {
    "methods": {}
  },
  "userdoc": {
    "methods": {}
  }
}